:08000000803102288731EF2F47
:100D340016302100970008000134023408340034CE
:100D440000347230210099009801220096010800B5
:100D54008731112786318631A326863186319A263A
:100D640086310800F1007108860087010109F0004E
:100D7400700822008C050800F100710A86008701C2
:100D84000108F000700822008C040800F1007108CA
:100D9400860087010108F000700822008C04080016
:100DA400F100710A860087010109F0007008220031
:100DB4008C050800F70077088631B4268631770859
:100DC4008631D22686310030F400F5007708873169
:100DD4003E2786310800F90079088631B426863129
:100DE40079088631BE2686317808F5007708F40044
:100DF400790887313E2786310800F9007908863161
:100E0400C826863179088631D22686317808F500DD
:100E14007708F400790887313E27863108002200DC
:100E24008C018D01FF3021008C00FF308D00FE30DD
:100E340023008D001F308C0024008D018C012100C3
:100E4400951722009D019E0108007108F3007008A7
:100E5400F200F336F20CF336F20C7208260091001D
:100E640070080339F2000430F235890B362F130869
:100E7400CF39720493000800F60004307502003084
:100E8400031974020318472F482F5B2F7608033E7B
:100E9400860087017408C03F7508C13F7608033E89
:100EA40086008701403FF000413FF100873127274A
:100EB40087310800F1007108860087010109F000FC
:100EC400700821008C05710A860087010109F00071
:100ED40070088C057108023E860087010109F00044
:100EE40070088C057108023E860087010108F00035
:100EF400700823008C0408008631AA268731283024
:100F040086000030870023308400003085000530DF
:100F1400FA0016001A00FA0B8B2F233087315C2756
:100F240087313C30260093007F3091009201CF300E
:100F340025009E05FF3020009B009A01911004308B
:100F44009C00A101A201A001A00A210A03300319F7
:100F54002206031DAE2FAF2FC92FA101A2012330FA
:100F64008631DC2687310B30FB002630FA005E30F8
:100F7400890BBA2FFA0BBA2FFB0BBA2F20002008CB
:100F84000319C52FC72F0130C82F0030A000200837
:100F94000319CD2FCE2FD72F2208F8002108F700F0
:100FA40023308631FF268731DF2F2208F8002108FD
:100FB400F70023308631ED2687311A30FA00F830F5
:100FC400890BE22FFA0BE22F003201302000A10737
:100FD4000030A23DA72F803102289E308400863045
:100FE40085001200A8001200A9001200AA00120035
:0C0FF400AB001200AC00200087317E2F03
:020000040001F9
:08000000FF3FFF3FFF3FFF3F00
:04000E00E43FFF1EAE
:00000001FF
