:08000000803102288731EF2F47
:100D320016302100970008000034013408340034D2
:100D420000347230210099009801220096010800B7
:100D52008731102786318631A2268631863199263F
:100D620086310800F1007108860087010109F00050
:100D7200700822008C050800F100710A86008701C4
:100D82000108F000700822008C040800F1007108CC
:100D9200860087010108F000700822008C04080018
:100DA200F1007108860087010109F0007008220035
:100DB2008C050800F70077088631B326863177085C
:100DC2008631D12686310030F400F500770887316C
:100DD2003D2786310800F90079088631B32686312D
:100DE20079088631BD2686317808F5007708F40047
:100DF200790887313D2786310800F9007908863164
:100E0200C726863179088631D12686317808F500E1
:100E12007708F400790887313D27863108002200DF
:100E22008C018D01FF3021008C00FF308D00FE30DF
:100E320023008D001F308C0024008D018C012100C5
:100E4200951722009D019E0108007108F3007008A9
:100E5200F200F336F20CF336F20C7208260091001F
:100E620070080339F2000430F235890B352F13086C
:100E7200CF39720493000800F60004307502003086
:100E8200031974020318462F472F5A2F7608033E80
:100E9200860087017408C03F7508C13F7608033E8B
:100EA20086008701403FF000413FF100873126274D
:100EB20087310800F1007108860087010109F000FE
:100EC200700821008C05710A860087010109F00073
:100ED20070088C057108023E860087010109F00046
:100EE20070088C057108023E860087010108F00037
:100EF200700823008C0408008631A9268731273028
:100F020086000030870022308400003085000530E2
:100F1200FA0016001A00FA0B8A2F223087315B275B
:100F220087313C30260093007F3091009201CF3010
:100F320025009E05FF3020009B009A01911004308D
:100F42009C00A001A101200A033003192106031D00
:100F5200AB2FAC2FAE2FA001A10101302102F53041
:100F6200031920020318B62FB72FC02F2108F8004B
:100F72002008F70022308631FE268731DF2F01302C
:100F82002102F53003192002031CC82FC92FDB2FC1
:100F920003302102E930031920020318D12FD22F86
:100FA200DB2F2108F8002008F70022308631EC26DA
:100FB2008731DF2F22308631DB2687311A30FA0063
:100FC200F830890BE22FFA0BE22F003201302000B9
:100FD200A0070030A13DA42F803102289D3084005B
:100FE200863085001200A7001200A8001200A90096
:0E0FF2001200AA001200AB00200087317D2FF4
:020000040001F9
:08000000FF3FFF3FFF3FFF3F00
:04000E00E43FFF1EAE
:00000001FF
